:100000000C9434000C9446000C9446000C9446006A
:100010000C9446000C9446000C9446000C94460048
:100020000C9446000C9446000C9446000C94460038
:100030000C9446000C9446000C9446000C94460028
:100040000C9486000C9446000C9446000C944600D8
:100050000C9446000C9446000C9446000C94460008
:100060000C9446000C94460011241FBECFEFD8E03C
:10007000DEBFCDBF21E0A0E0B1E001C01D92A930FC
:10008000B207E1F70E94E1000C94EA000C94000032
:10009000789484B5826084BD84B5816084BD85B563
:1000A000826085BD85B5816085BDEEE6F0E080812A
:1000B00081608083E1E8F0E010828081826080834B
:1000C000808181608083E0E8F0E0808181608083CE
:1000D000E1EBF0E0808184608083E0EBF0E0808100
:1000E00081608083EAE7F0E08081846080838081A2
:1000F000826080838081816080838081806880834A
:100100001092C10008950895089508951F920F92C6
:100110000FB60F9211240F931F932F933F934F937A
:100120005F936F937F938F939F93AF93BF93009150
:10013000050110910601209107013091080190916D
:100140000401B901A8014F5F5F4F6F4F7F4F83E0FC
:10015000890F8D3740F086E8890FB901A8014E5FFD
:100160005F4F6F4F7F4F8093040140930501509381
:10017000060160930701709308018091000190913E
:100180000101A0910201B09103010196A11DB11DD1
:100190008093000190930101A0930201B0930301A9
:1001A000BF91AF919F918F917F916F915F914F918F
:1001B0003F912F911F910F910F900FBE0F901F90A5
:1001C00018950E94480080E090E0892BE1F30E949E
:0801D0000000F9CFF894FFCF05
:00000001FF
