:100000000C945D000C9485000C9485000C94850084
:100010000C9485000C9485000C9485000C9485004C
:100020000C9485000C9485000C9485000C9485003C
:100030000C9485000C9485000C9485000C9485002C
:100040000C943F020C9485000C94AF020C9489022E
:100050000C9485000C9485000C9485000C9485000C
:100060000C9485000C9485000000000024002700FB
:100070002A0000000000250028002B0004040404CE
:100080000404040402020202020203030303030342
:10009000010204081020408001020408102001021F
:1000A00004081020000000080002010000030407FB
:1000B00000000000000000004C0311241FBECFEF21
:1000C000D8E0DEBFCDBF11E0A0E0B1E0ECE0F7E0AA
:1000D00002C005900D92A231B107D9F721E0A2E14B
:1000E000B1E001C01D92A83BB207E1F710E0CDE5F9
:1000F000D0E004C02197FE010E947903CC35D107DE
:10010000C9F70E94E1020C9484030C940000E6EA13
:10011000F0E09491E2E9F0E02491EEE7F0E0E49180
:10012000EE2309F43CC0992339F1933091F038F46F
:100130009130A9F0923001F594B59F7D12C09730AF
:1001400091F09830A1F09430B9F4909180009F7DA7
:1001500003C0909180009F77909380000DC094B56C
:100160009F7794BD09C09091B0009F7703C0909194
:10017000B0009F7D9093B000F0E0EE0FFF1FEE58AF
:10018000FF4FA591B4919FB7F894811104C08C9151
:100190002095282302C0EC912E2B2C939FBF08950D
:1001A0003FB7F8948091B4019091B501A091B60148
:1001B000B091B70126B5A89B05C02F3F19F0019655
:1001C000A11DB11D3FBFBA2FA92F982F8827820FDD
:1001D000911DA11DB11DBC01CD0142E0660F771F2D
:1001E000881F991F4A95D1F708958F929F92AF92D9
:1001F000BF92CF92DF92EF92FF920E94D0004B010C
:100200005C0188EEC82E83E0D82EE12CF12C0E94F0
:10021000D000DC01CB0188199909AA09BB09883EE5
:100220009340A105B10598F321E0C21AD108E10875
:10023000F10888EE880E83E0981EA11CB11CC11441
:10024000D104E104F10419F7FF90EF90DF90CF9013
:10025000BF90AF909F908F900895CF92DF92EF92D2
:10026000FF920F931F93CF93DF936C017A018B0161
:10027000C0E0D0E0CE15DF0581F0D8016D918D0191
:10028000D601ED91FC910190F081E02DC601099518
:10029000892B11F02196EECF7E01C701DF91CF911E
:1002A0001F910F91FF90EF90DF90CF9008950895E8
:1002B00080E090E00895FC01538D448D252F30E0BF
:1002C000842F90E0821B930B541710F0CF96089563
:1002D00001970895FC01918D828D981761F0828DB0
:1002E000DF01A80FB11D5D968C91928D9F5F9F736A
:1002F000928F90E008958FEF9FEF0895FC01918D0C
:10030000828D981731F0828DE80FF11D858D90E078
:1003100008958FEF9FEF0895FC01918D228D892F15
:1003200090E0805C9F4F821B91098F7399270895FD
:1003300082E191E00E948C0121E0892B09F420E008
:10034000822F0895FC01848DDF01A80FB11DA35AEF
:10035000BF4F2C91848D90E001968F739927848FE5
:10036000A689B7892C93A089B1898C918370806408
:100370008C93938D848D981306C00288F389E02DA9
:1003800080818F7D80830895EF92FF920F931F935A
:10039000CF93DF93EC0181E0888F9B8D8C8D981338
:1003A00005C0E889F989808185FD26C0F62E0B8D70
:1003B00010E00F5F1F4F0F731127E02E8C8DE81296
:1003C0000CC00FB607FCFACFE889F989808185FF58
:1003D000F5CFCE010E94A201F1CF8B8DFE01E80F77
:1003E000F11DE35AFF4FF0829FB7F8940B8FEA8913
:1003F000FB89808180620AC09FB7F894EE89FF89EB
:100400006083E889F98980818370806480839FBFDD
:1004100081E090E0DF91CF911F910F91FF90EF90DD
:100420000895CF93DF93EC01888D8823C9F0EA8982
:10043000FB89808185FD05C0A889B9898C9186FDDD
:100440000FC00FB607FCF5CF808185FFF2CFA889DA
:10045000B9898C9185FFEDCFCE010E94A201E7CF33
:10046000DF91CF91089580E090E0892B29F00E94E0
:10047000980181110C94000008950E947F031F923F
:100480000F920FB60F9211242F933F938F939F9348
:10049000AF93BF938091B0019091B101A091B2014F
:1004A000B091B3013091AF0123E0230F2D3720F439
:1004B0000196A11DB11D05C026E8230F0296A11DBE
:1004C000B11D2093AF018093B0019093B101A0932F
:1004D000B201B093B3018091B4019091B501A091A4
:1004E000B601B091B7010196A11DB11D8093B40171
:1004F0009093B501A093B601B093B701BF91AF91AE
:100500009F918F913F912F910F900FBE0F901F9051
:1005100018951F920F920FB60F9211242F933F93AD
:100520004F935F936F937F938F939F93AF93BF93FB
:10053000EF93FF9382E191E00E94A201FF91EF917E
:10054000BF91AF919F918F917F916F915F914F91EB
:100550003F912F910F900FBE0F901F9018951F92F3
:100560000F920FB60F9211242F938F939F93EF93B7
:10057000FF93E0912201F09123018081E091280115
:10058000F091290182FD12C0908180912B018F5F33
:100590008F7320912C01821751F0E0912B01F0E034
:1005A000EE5EFE4F958F80932B0101C08081FF91FD
:1005B000EF919F918F912F910F900FBE0F901F90F1
:1005C0001895789484B5826084BD84B5816084BDBB
:1005D00085B5826085BD85B5816085BD80916E00E1
:1005E000816080936E001092810080918100826012
:1005F000809381008091810081608093810080914F
:1006000080008160809380008091B100846080933D
:10061000B1008091B00081608093B00080917A0039
:10062000846080937A0080917A00826080937A005F
:1006300080917A00816080937A0080917A0080684E
:1006400080937A001092C100E2E9F0E02491EEE795
:10065000F0E08491882399F090E0880F991FFC01C5
:10066000E859FF4FA591B491FC01EE58FF4F8591D9
:1006700094918FB7F894EC91E22BEC938FBF81E0CB
:100680000E9487000E94F50080E00E9487000E947F
:10069000F5000E943302F3CFE2E1F1E0138212820F
:1006A00088EE93E0A0E0B0E084839583A683B783CF
:1006B00084E091E09183808385EC90E09587848746
:1006C00084EC90E09787868780EC90E0918B808B1C
:1006D00081EC90E0938B828B82EC90E0958B848B05
:1006E00086EC90E0978B868B118E128E138E148E73
:1006F0000895EE0FFF1F0590F491E02D099481E01D
:0C07000090E0F8940C948403F894FFCF70
:10070C0000000000C4012D015B0111028C016A0183
:02071C007E015C
:00000001FF
